S010000050726F6A656374352E7372656308
S11300000C942A000C9447000C9447000C9447006D
S11300100C9447000C9447000C9447000C94470040
S11300200C9447000C9447000C9447000C94470030
S11300300C9447000C9447000C9447000C94470020
S11300400C9447000C9447000C9447000C94470010
S11300500C94470011241FBECFE5D8E0DEBFCDBF0E
S113006010E0A0E6B0E0E0E0F5E102C005900D92FA
S1130070A43BB107D9F720E0A4EBB0E001C01D9286
S1130080A23DB207E1F70E9431060C947E0A0C945B
S1130090000023E023BF33EF08C032BF28B721603C
S11300A028BFA89508B600FEFDCF0197B0F713BE90
S11300B00895662311F0C09A01C0C098C19882BB0C
S11300C08FEF81BBC29A000000000000C29808951F
S11300D0C098C19A11BA90B3C29A000000000000FF
S11300E011BA90B3C29899239CF30E9459000895C1
S11300F0B89AB99ABA9A80E190E00E94490060E007
S113010080E30E94590085E090E00E94490060E08D
S113011080E30E94590081E090E00E94490060E081
S11301208CE30E94680060E08CE00E94680060E05C
S113013086E00E94680060E081E00E946800089503
S113014060E081E00E9468000895CF93C62F98E292
S1130150899FC00D112460E082E00E946800CC23D6
S113016031F060E084E10E946800C150D1F7CF9182
S11301700895CF93DF93EC012196FC0180818823BD
S113018031F061E00E94680089918111FACFDF911A
S1130190CF91089580E487B987E886B9089587B137
S11301A0887F87B9369A3699FECF84B195B1089580
S11301B0EF92FF920F931F93CF93DF9300E010E031
S11301C06894EE24E2F8F12C81E090E00E9449006A
S11301D024B381E090E0002E02C0880F991F0A9496
S11301E0E2F7922F982B94BB95B38095892385BB16
S11301F081E090E00E944900CE2DDF2D81E090E067
S11302000E94490024B381E090E00C2E02C0880FC4
S1130210991F0A94E2F7982F9095922394BB95B373
S1130220892B85BB81E090E00E9449002196C8306B
S1130230D10521F70F5F1F4F0430110529F6DF9117
S1130240CF911F910F91FF90EF9008959091D0005E
S113025081E089278093D00008958091CF0088237E
S113026081F08091C7009091C8001816190614F403
S1130270019702C087E190E09093C8008093C70083
S113028008958091BC00882379F08091B700909103
S1130290B8001816190614F4019702C087E190E01B
S11302A09093B8008093B70008958091CF0088237D
S11302B081F08091C7009091C8008731910514F4B2
S11302C0019602C080E090E09093C8008093C7003C
S11302D008958091BC00882379F08091B7009091B3
S11302E0B8008731910514F4019602C080E090E0D3
S11302F09093B8008093B70008958091CF0088232D
S113030079F08091BF009091C0001816190614F47A
S1130310019702C08BE390E09093C0008093BF00EC
S11303208091BC00882379F08091B9009091BA0043
S11303301816190614F4019702C08BE390E0909309
S1130340BA008093B90008958091CF00882381F08A
S11303508091BF009091C0008B33910514F40196F5
S113036002C080E090E09093C0008093BF000895A5
S11303708091BC00882379F08091B9009091BA00F3
S11303808B33910514F4019602C080E090E09093C1
S1130390BA008093B90008958091CF00882381F03A
S11303A08091BD009091BE001816190614F40197AF
S11303B002C08BE390E09093BE008093BD0008954B
S11303C08091BC00882379F08091C1009091C20093
S11303D01816190614F4019702C08BE390E0909369
S11303E0C2008093C10008958091CF00882381F0DA
S11303F08091BD009091BE008B33910514F4019659
S113040002C080E090E09093BE008093BD00089508
S11304108091BC00882379F08091C1009091C20042
S11304208B33910514F4019602C080E090E0909320
S1130430C2008093C1000895CF92DF92EF92FF92A1
S11304400F931F93CF93DF93CDB7DEB761970FB6AA
S1130450F894DEBF0FBECDBF182F092FF62EE72E5E
S1130460D42EC52E60E081E00E94A500CF92DF92D9
S1130470EF92FF920F931F9380E690E09F938F93E8
S11304808E010F5F1F4F1F930F930E94AD07C8018A
S11304900E94B9000FB6F894DEBF0FBECDBF6196BF
S11304A00FB6F894DEBF0FBECDBFDF91CF911F9181
S11304B00F91FF90EF90DF90CF900895CF93DF934B
S11304C088EE93E00E9449008091D000882309F4CB
S11304D079C08091BC00882309F474C0C4EBD0E0D7
S11304E09C9913C08091B4009091B500009719F4C1
S11304F00E942D010AC08330910519F40E947D01E8
S113050004C0069711F40E94CC019D9913C08091F8
S1130510B4009091B500009719F40E9455010AC0E7
S11305208330910519F40E94A40104C0069711F4C4
S11305300E94F4019F9918C08091B4009091B50075
S11305408630910534F403969093B5008093B400FB
S11305500BC00E9426011092BC001092B5001092AC
S1130560B4000E94A0002EC0688181E00E94A50012
S11305708FE690E00E94B9008EEE92E00E9449005E
S11305804091C1005091C2006091B9007091BA00CD
S11305908091B7009091B8000E941C026AE081E04B
S11305A00E94A50082E790E00E94B90088EE93E0E3
S11305B00E9449008091D000882321F08091BC00E2
S11305C081118ECF88EE93E00E94490060E080E0C4
S11305D00E94A5008AEA90E00E94B9000E941C02D1
S11305E088EE93E00E944900DF91CF9108951F9314
S11305F0CF93DF938091D000882309F47EC080914B
S1130600CF00882309F479C011E0C4EBD0E09C99B1
S113061015C02091B4003091B5002115310519F4AD
S11306200E942D010BC02330310519F40E947D0175
S113063005C02630310511F40E94CC019D9915C0E6
S11306402091B4003091B5002115310519F40E94B0
S113065055010BC02330310519F40E94A40105C0D3
S11306602630310511F40E94F4019F9918C020919D
S1130670B4003091B500263031053CF42D5F3F4F76
S11306803093B5002093B4000AC01093BC001092BC
S1130690CF001092B5001092B4000E945E026881EF
S11306A0812F0E94A5008FE690E00E94B9008EEE93
S11306B092E00E9449004091BD005091BE006091BB
S11306C0BF007091C0008091C7009091C8000E9443
S11306D01C026AE0812F0E94A50089E790E00E9435
S11306E0B90088EE93E00E9449008091D0008823ED
S11306F021F08091CF0081118ACFDF91CF911F919A
S113070008950E94CF00BC0180E090E00E94F706AB
S11307106093C3007093C4008093C5009093C60097
S11307201092D10008959C991EC00E94A00060E020
S113073080E00E94A5008FE790E00E94B90010922B
S1130740BB001092D1001092B6004091CB005091A2
S1130750CC006091C9007091CA008091CD00909145
S1130760CE000E941C029D9921C08091D10081116C
S11307701DC00E94A00060E080E00E94A50089E8FE
S113078090E00E94B9004091CB005091CC00609160
S1130790C9007091CA008091CD009091CE000E9452
S11307A01C0281E08093BB000E9481039E992BC0B0
S11307B08091D100811127C00E9426018091D00030
S11307C0882309F10E94A00060E080E00E94A50057
S11307D082E990E00E94B9004091BD005091BE00B2
S11307E06091BF007091C0008091C7009091C800D3
S11307F00E941C0281E08093CF000E94F70284E6ED
S113080090E00E9449009F997DC08091D1008111A0
S113081079C02091C7003091C8008091B7009091B1
S1130820B80028173907B9F42091BF003091C000EF
S11308308091B9009091BA002817390761F420918A
S1130840BD003091BE008091C1009091C200281774
S1130850390709F43FC081E08093B6000E94A000EC
S113086060E080E00E94A5008CE990E00E94B9005D
S11308704091CB005091CC006091C9007091CA00A6
S11308808091CD009091CE000E941C022091CD0059
S11308903091CE008091C7009091C8002817390785
S11308A089F52091C9003091CA008091BF009091D0
S11308B0C0002817390731F52091CB003091CC00C6
S11308C08091BD009091BE0028173907D9F40E9489
S11308D0A70408950E94A00060E080E00E94A500A3
S11308E087EA90E00E94B9004091CB005091CC007F
S11308F06091C9007091CA008091CD009091CE00A2
S11309000E941C020895EF92FF920F931F93CF93BE
S1130910DF93E62EF12C1E141F0494F4C0E0D0E003
S1130920082F10E0D99AC8010E944900D998C8013B
S11309300E9449000E9493032196CE15DF0594F38B
S1130940DF91CF911F910F91FF90EF9008952F9217
S11309503F924F925F926F927F928F929F92AF924B
S1130960BF92CF92DF92EF92FF920F931F93CF9398
S1130970DF936CE081E00E94A5008FE890E00E9484
S1130980B9000E94CF00BC0180E090E00E94F7060D
S11309906093C3007093C4008093C5009093C60015
S11309A0C090B700D090B8008091C7009091C80063
S11309B0C816D9063CF49601281B390B285E3F4F14
S11309C0690102C0C81AD90AA090B900B090BA004F
S11309D08091BF009091C000A816B9063CF495011F
S11309E0281B390B245C3F4F590102C0A81AB90ACD
S11309F08090C1009090C2008091BD009091BE0093
S1130A008816990684F49401281B390B245C3F4F03
S1130A104901DD200CF499C0BB200CF496C01814D5
S1130A20190424F092C0881A990AF3CFC0E0D0E0E8
S1130A3000E010E0E12CF12C33243394212C0E94AB
S1130A40CF00BC0180E090E00E94F7062B013C013E
S1130A5020E030E040EA51E46091C3007091C400AA
S1130A608091C5009091C6000E948F069B01AC0145
S1130A70C301B2010E94A9071816FCF00E94CF001E
S1130A80BC0180E090E00E94F7062B013C0120E0CD
S1130A9030E040EA51E46091C3007091C400809159
S1130AA0C5009091C6000E948E069B01AC01C30153
S1130AB0B2010E94F30688231CF43092D10004C0D2
S1130AC08091D100882339F06AE070E081E090E001
S1130AD00E94830430C0CB33D10544F10B3311059C
S1130AE0FCF037E1E316F10424F48FEFE81AF80A76
S1130AF002C0E22CF12C0E94CF00BC0180E090E007
S1130B000E94F7066093C3007093C4008093C500ED
S1130B109093C600C22D30E0D32F022D10E007C001
S1130B200F5F1F4FC22D20E0D22F01C0219684E613
S1130B3090E00E944900CE14DF043CF0A016B106F8
S1130B4024F0C815D9050CF47ACFDF91CF911F9109
S1130B500F91FF90EF90DF90CF90BF90AF909F9058
S1130B608F907F906F905F904F903F902F9008955B
S1130B700E9493038091CB009091CC008B3391051C
S1130B80B4F11092CC001092CB008091C9009091E6
S1130B90CA008B3391052CF11092CA001092C9003F
S1130BA08091CD009091CE00873191052CF0109268
S1130BB0CE001092CD0005C001969093CE00809394
S1130BC0CD000E94CF00BC0180E090E00E94F706B7
S1130BD06093C3007093C4008093C5009093C600D3
S1130BE00BC001969093CA008093C90005C001967A
S1130BF09093CC008093CB004091CB005091CC00DB
S1130C006091C9007091CA008091CD009091CE008E
S1130C100E941C0284E690E00E9449000895D09A44
S1130C20D19A0E94CA000E9478000E94A0000E94EB
S1130C3081030E94CF00BC0180E090E00E94F7068F
S1130C406093C3007093C4008093C5009093C60062
S1130C5060E080E00E94A5008FE790E00E94B90068
S1130C6008950E940F060E94B8050E94D8000E94B1
S1130C7093034FC00E9493030E94CF00BC0180E005
S1130C8090E00E94F7066B017C0120E030E040EA2E
S1130C9051E46091C3007091C4008091C5009091AB
S1130CA0C6000E948F069B01AC01C701B6010E94D9
S1130CB0A9071816FCF00E94CF00BC0180E090E068
S1130CC00E94F7066B017C0120E030E040EA51E429
S1130CD06091C3007091C4008091C5009091C600DA
S1130CE00E948E069B01AC01C701B6010E94F30667
S1130CF0882324F481E08093D10004C08091D10042
S1130D00882329F06AE081E00E94830402C00E94E3
S1130D10B8058091BB008111ADCFA5CF5058BB273A
S1130D20AA270ED0DCC0CDD030F0D2D020F031F4E0
S1130D309F3F11F41EF4C2C00EF4E095E7FBB8C067
S1130D40E92FDED080F3BA1762077307840795078B
S1130D5018F071F49EF5F6C00EF4E0950B2EBA2F40
S1130D60A02D0B01B90190010C01CA01A0011124AD
S1130D70FF27591B99F0593F50F4503E68F11A1659
S1130D80F040A22F232F342F4427585FF3CF4695EA
S1130D9037952795A795F0405395C9F77EF41F160C
S1130DA0BA0B620B730B840BBAF09150A1F0FF0FD6
S1130DB0BB1F661F771F881FC2F70EC0BA0F621FC2
S1130DC0731F841F48F4879577956795B795F795B2
S1130DD09E3F08F0B3CF9395880F08F09927EE0F44
S1130DE097958795089540D008F481E00895E89494
S1130DF009C097FB3EF490958095709561957F4F5F
S1130E008F4F9F4F9923A9F0F92F96E9BB2793950C
S1130E10F695879577956795B795F111F8CFFAF41C
S1130E20BB0F11F460FF1BC06F5F7F4F8F4F9F4F4D
S1130E3016C0882311F096E911C0772321F09EE8AB
S1130E40872F762F05C0662371F096E8862F70E011
S1130E5060E02AF09A95660F771F881FDAF7880FEB
S1130E609695879597F90895990F0008550FAA0B41
S1130E70E0E8FEEF16161706E807F907C0F01216A9
S1130E801306E407F50798F0621B730B840B950BAC
S1130E9039F40A2661F0232B242B252B21F4089501
S1130EA00A2609F4A140A6958FEF811D811D08959E
S1130EB097F99F6780E870E060E008959FEF80EC09
S1130EC0089500240A9416161706180609060895AC
S1130ED000240A9412161306140605060895092E12
S1130EE00394000C11F4882352F0BB0F40F4BF2B81
S1130EF011F460FF04C06F5F7F4F8F4F9F4F0895C1
S1130F0057FD9058440F551F59F05F3F71F04795B6
S1130F10880F97FB991F61F09F3F79F0879508959B
S1130F20121613061406551FF2CF4695F1DF08C0BA
S1130F30161617061806991FF1CF869571056105D7
S1130F4008940895E894BB2766277727CB0197F97F
S1130F5008958ADF08F48FEF0895AEE0B0E0E3EB84
S1130F60F7E00C94550A0D891E8986E08C831A8358
S1130F7009838FEF9FE79E838D83AE01475E5F4FAA
S1130F806F89788DCE0101960E94CF07EF81F88595
S1130F90E00FF11F10822E96E4E00C94710AACE08D
S1130FA0B0E0E5EDF7E00C94470A7C016B018A019F
S1130FB0FC0117821682838181FFBDC1CE01019697
S1130FC04C01F7019381F60193FD859193FF819183
S1130FD06F01882309F4ABC1853239F493FD8591FF
S1130FE093FF81916F01853229F4B70190E00E944B
S1130FF0B709E7CF512C312C20E02032A0F48B32FA
S113100069F030F4803259F0833269F420612CC0E5
S11310108D3239F0803339F4216026C02260246097
S113102023C0286021C027FD27C030ED380F3A3097
S113103078F426FF06C0FAE05F9E300D1124532E8B
S113104013C08AE0389E300D1124332E20620CC068
S11310508E3221F426FD6BC1206406C08C3611F457
S1131060206802C0883641F4F60193FD859193FF10
S113107081916F018111C1CF982F9F7D9554933039
S113108028F40C5F1F4FFFE3F9830DC0833631F062
S1131090833771F0833509F05BC022C0F801808189
S11310A089830E5F1F4F44244394512C540115C06F
S11310B03801F2E06F0E711CF801A080B18026FFA8
S11310C003C0652D70E002C06FEF7FEFC5012C8770
S11310D00E94AC092C0183012C852F77222E17C086
S11310E03801F2E06F0E711CF801A080B18026FF78
S11310F003C0652D70E002C06FEF7FEFC5012C8740
S11311000E94A1092C012C852068222E830123FC36
S11311101BC0832D90E048165906B0F4B70180E255
S113112090E00E94B7093A94F4CFF50127FC859129
S113113027FE81915F01B70190E00E94B709311049
S11311403A94F1E04F1A51084114510471F7E5C083
S1131150843611F0893639F5F80127FF07C060811C
S11311607181828193810C5F1F4F08C060817181FE
S1131170882777FD8095982F0E5F1F4F2F76B22E0C
S113118097FF09C090958095709561957F4F8F4F1B
S11311909F4F2068B22E2AE030E0A4010E94E909A2
S11311A0A82EA81844C0853729F42F7EB22E2AE031
S11311B030E025C0F22FF97FBF2E8F36C1F018F42E
S11311C0883579F0B4C0803719F0883721F0AFC082
S11311D02F2F2061B22EB4FE0DC08B2D8460B82E4B
S11311E009C024FF0AC09F2F9660B92E06C028E0CC
S11311F030E005C020E130E002C020E132E0F80137
S1131200B7FE07C060817181828193810C5F1F4F9B
S113121006C06081718180E090E00E5F1F4FA401E1
S11312200E94E909A82EA818FB2DFF77BF2EB6FE51
S11312300BC02B2D2E7FA51450F4B4FE0AC0B2FCB3
S113124008C02B2D2E7E05C07A2C2B2D03C07A2CA2
S113125001C0752C24FF0DC0FE01EA0DF11D808133
S1131260803311F4297E09C022FF06C0739473945D
S113127004C0822F867809F0739423FD13C020FFE5
S113128006C05A2C731418F4530C5718732C731487
S113129068F4B70180E290E02C870E94B709739448
S11312A02C85F5CF731410F4371801C0312C24FFAA
S11312B012C0B70180E390E02C870E94B7092C8507
S11312C022FF17C021FF03C088E590E002C088E731
S11312D090E0B7010CC0822F867859F021FD02C03E
S11312E080E201C08BE227FD8DE2B70190E00E940D
S11312F0B709A51438F4B70180E390E00E94B70958
S11313005A94F7CFAA94F401EA0DF11D8081B70134
S113131090E00E94B709A110F5CF332009F451CE13
S1131320B70180E290E00E94B7093A94F6CFF70142
S11313308681978102C08FEF9FEF2C96E2E10C9497
S1131340630AFC010590615070400110D8F7809544
S113135090958E0F9F1F0895FC016150704001907D
S11313600110D8F7809590958E0F9F1F08950F93C5
S11313701F93CF93DF93182F092FEB018B8181FDEE
S113138003C08FEF9FEF20C082FF10C04E815F81AA
S11313902C813D81421753077CF4E881F9819F0138
S11313A02F5F3F4F39832883108306C0E885F98572
S11313B0812F0995892B29F72E813F812F5F3F4F7C
S11313C03F832E83812F902FDF91CF911F910F9117
S11313D00895FA01AA27283051F1203181F1E894C7
S11313E06F936E7F6E5F7F4F8F4F9F4FAF4FB1E014
S11313F03ED0B4E03CD0670F781F891F9A1FA11D0F
S1131400680F791F8A1F911DA11D6A0F711D811D0F
S1131410911DA11D20D009F468943F912AE0269FD4
S113142011243019305D3193DEF6CF010895462F33
S11314304770405D4193B3E00FD0C9F7F6CF462F14
S11314404F70405D4A3318F0495D31FD405241937D
S113145002D0A9F7EACFB4E0A6959795879577953A
S11314606795BA95C9F700976105710508959B01C1
S1131470AC010A2E06945795479537952795BA954A
S1131480C9F7620F731F841F951FA01D08952F9223
S11314903F924F925F926F927F928F929F92AF9200
S11314A0BF92CF92DF92EF92FF920F931F93CF934D
S11314B0DF93CDB7DEB7CA1BDB0B0FB6F894DEBFE4
S11314C00FBECDBF09942A88398848885F846E840A
S11314D07D848C849B84AA84B984C884DF80EE8054
S11314E0FD800C811B81AA81B981CE0FD11D0FB65D
S11314F0F894DEBF0FBECDBFED010895F894FFCF81
S1131500253032643A253032643A25303264002082
S1131510200046494E495348005354415254004117
S11315204C41524D204F464600414C41524D204FB4
S11315304E0053455420414C41524D0054494D45B1
S113154020414C41524D004E4F20414C41524D20C0
S107155053455400A7
S90300CF2D
